:020000040800F2
:1000000080FA00209D250008012C0008032C000820
:10001000072C00080B2C00080F2C00080000000023
:10002000000000000000000000000000132C000889
:10003000152C000800000000172C0008B52500084A
:10004000B7250008B7250008B7250008B725000820
:10005000B7250008B7250008B7250008B725000810
:10006000B7250008B7250008B7250008B725000800
:10007000B7250008B7250008B7250008B7250008F0
:10008000B7250008B7250008B7250008B7250008E0
:10009000B7250008B7250008B7250008B7250008D0
:1000A000B7250008B7250008B7250008B7250008C0
:1000B000B7250008B7250008B7250008B7250008B0
:1000C000B7250008B7250008B7250008B7250008A0
:1000D000B7250008B7250008B7250008B725000890
:1000E000B7250008B7250008B72500080000000064
:1000F0000000000000000000000000000000000000
:100100000000000000000000B7250008B725000827
:10011000B7250008B7250008B7250008B72500084F
:10012000B7250008B7250008B7250008B72500083F
:10013000B7250008B7250008B7250008B72500082F
:10014000B7250008B7250008B7250008B72500081F
:1001500000F002F800F05AF80AA090E8000C82447F
:100160008344AAF10107DA4501D100F04FF8AFF25C
:10017000090EBAE80F0013F0010F18BFFB1A43F085
:10018000010318475C5900007C5900000A444FF0F5
:10019000000C10F8013B13F0070408BF10F8014BE6
:1001A0001D1108BF10F8015B641E05D010F8016B2B
:1001B000641E01F8016BF9D113F0080F1EBF10F88F
:1001C000014BAD1C0C1B09D16D1E58BF01F801CBB2
:1001D000FAD505E014F8016B01F8016B6D1EF9D535
:1001E0009142D6D37047000000230024002500264A
:1001F000103A28BF78C1FBD8520728BF30C148BF8A
:100200000B6070471FB51FBD10B510BD04F064FE34
:100210001146FFF7F7FF02F0F0F904F082FE03B495
:10022000FFF7F2FF03BC04F083FE00000021002072
:100230008D4A126842F480328B4B1A6000BF8A4AA2
:10024000126802F40030491C10B9B1F5A06FF6D164
:10025000854A126812F4003F01D0012000E000201E
:1002600001285AD1814A126842F010027F4B1A606D
:100270001A46126822F003021A601A46126842F007
:1002800002021A60784A5268774B5A601A465268DE
:100290005A601A46526842F480625A601A46D26A1C
:1002A000734B1A40704BDA621A46D26A714B1A438A
:1002B0006D4BDA621A46126842F080621A6000BF23
:1002C000694A126812F0006FFAD0674A526822F445
:1002D0007C12654B5A601A46526842F4E8125A6022
:1002E0001A46126842F080721A6000BF5E4A1268B5
:1002F00012F0007FFAD05C4A526822F003025A4B97
:100300005A601A46526842F002025A6000BF564ACA
:10031000526802F00C02082AF9D1704710B5FFF7B5
:1003200085FF10BD10B55048006840F001004E49EF
:10033000086008464068504908404B4948600846F4
:1003400000684E490840484908600846006820F4A3
:10035000802008600846406820F4FE004860084697
:10036000006820F0A05008604FF47F0088600020F3
:10037000C862FFF7D3FF4FF000604149086010BD2D
:10038000F0B50021002000230024002200250026D3
:10039000354F7F6807F00C0121B1042908D00829E6
:1003A0004BD10BE0374FDFF8E0C0CCF800704AE0EB
:1003B000364FDFF8D4C0CCF8007044E02A4F7F6895
:1003C00007F47010284F7F6807F48033800C0D28E5
:1003D00001D0801C00E0062033B92D4F4743DFF8E1
:1003E000A8C0CCF8007027E01F4FFF6A07F48034E4
:1003F0001D4FFF6A07F00F077A1C44B9234FB7FB64
:10040000F2F74743DFF880C0CCF8007014E0164FD5
:10041000FF6AC7F303177D1C134FFF6AC7F3032757
:10042000BE1C1A4FB7FBF5F77743B7FBF2F747430C
:10043000DFF854C0CCF8007005E0124FDFF848C078
:10044000CCF8007000BF00BF074F7F68C7F30317E9
:10045000DFF840C01CF807100B4F3F68CF40DFF8B3
:1004600028C0CCF80070F0BD00100240002002400F
:1004700000F0FEFF440601000000FFF0FFFFF6FE63
:1004800008ED00E000127A000000002040787D01B5
:1004900000093D000400002010B50446CA4884420B
:1004A00008D10121042000F0E3FB0021042000F02A
:1004B000DFFB46E0C548844208D10121082000F056
:1004C000D7FB0021082000F0D3FB3AE0C04884426B
:1004D00008D10121102000F0CBFB0021102000F0FA
:1004E000C7FB2EE0BB48844208D10121202000F048
:1004F000BFFB0021202000F0BBFB22E0B648844275
:1005000008D10121402000F0B3FB0021402000F081
:10051000AFFB16E0B148844208D10121802000F0F1
:10052000A7FB0021802000F0A3FB0AE0AC48844236
:1005300007D10121801500F09BFB0021A01500F0E0
:1005400097FB10BD10B50121084600F091FB00217A
:10055000012000F08DFB10BD2DE9F0410246002581
:100560000026002000230024002791F803C00CF08F
:100570000F0591F803C01CF0100F03D091F802C0D2
:100580004CEA050591F800C0BCF1000F31D01468A9
:1005900000202BE04FF0010C0CFA00F3B1F800C082
:1005A0000CEA03069E4220D183004FF00F0C0CFA98
:1005B00003F7BC4305FA03FC4CEA040491F803C0BA
:1005C000BCF1280F06D14FF0010C0CFA00FCC2F868
:1005D00014C00AE091F803C0BCF1480F05D14FF0F8
:1005E000010C0CFA00FCC2F810C0401C0828D1D342
:1005F0001460B1F800C0BCF1FF0F34DD5468002076
:100600002EE000F1080C4FF0010808FA0CF3B1F8E5
:1006100000C00CEA03069E4221D183004FF00F0C6C
:100620000CFA03F7BC4305FA03FC4CEA040491F806
:1006300003C0BCF1280F05D100F1080C08FA0CF832
:10064000C2F8148091F803C0BCF1480F07D100F143
:10065000080C4FF0010808FA0CF8C2F81080401C92
:100660000828CED35460BDE8F0814FF6FF710180B9
:10067000022181700421C1707047024600209368F6
:100680000B4201D0012000E000207047014688683D
:1006900080B2704702460020D3680B4201D001208F
:1006A00000E0002070470146C86880B270470161D1
:1006B0007047416170470AB1016100E041617047D4
:1006C000C16070474FF480320A4382618161826168
:1006D00082698269704702460020424B18684FF6D3
:1006E0008073184040EA021008433E4B1860704780
:1006F0003D49C8617047F0B50A4600230024002137
:10070000002500F00046B6F1004F02D1354EF169E8
:1007100001E0344E7168C0F3034583B200F4401623
:10072000B6F5401F08D121F070612E4E766826F094
:1007300070662C4F7E6012E000F48016B6F5801FC4
:1007400006D1032606FA05F4A14341F0706106E0E4
:10075000460D360103FA06F6B14341F0706122B14D
:10076000460D360103FA06F6314300F00046B6F1B5
:10077000004F02D11B4EF16101E01A4E7160F0BDD5
:1007800030B500228B071C0F0F2303FA04F2154B20
:1007900008338C1053F824309343124C08348D10D6
:1007A00044F8253023468C1053F824308C07240F4E
:1007B00000FA04F423430B4C08348D1044F8253020
:1007C00030BD0A490860704700080140000C014034
:1007D000001001400014014000180140001C0140BD
:1007E000002001400000014000002042DC002042C7
:1007F000F748006840F00100F54908600846406885
:10080000F4490840F249486008460068F249084047
:10081000EF4908600846006820F480200860084618
:10082000406820F4FE0048600846006820F0A050B0
:1008300008604FF47F0088600020C8627047E44978
:10084000096821F48031E24A11601146096821F4F7
:1008500080211160B0F5803F03D0B0F5802F0ED11C
:1008600006E0DB49096841F48031D94A116007E0AC
:10087000D749096841F4A021D54A116000E000BFC2
:1008800000BF704710B501460022002300204A1126
:10089000012A02D1CE4C236806E0022A02D1CC4CB8
:1008A000236A01E0CA4C636A01F01F0201249440EC
:1008B0001C4201D0012000E0002010BD70B50024D2
:1008C0000025002600BF3120FFF7DCFF0646641C30
:1008D000B4F5A06F01D0002EF5D03120FFF7D2FF84
:1008E00008B1012500E00025284670BD0146002022
:1008F000B74A106820F0F80040EAC1001060704765
:10090000B6490860704702460020B14B586820F491
:10091000741042EA01031843AD4B58607047AF4969
:100920000866704702460020A94BD86AAC4B1840B5
:1009300042EA01031843A64BD862704701460020E3
:10094000A34AD06A20F0F0000843D0627047014605
:1009500000209F4AD06A20F470600843D06270473C
:100960009E498866704701460020994AD06A20F463
:1009700070400843D0627047984908677047014645
:100980000020934A506820F00300084350607047ED
:100990008F48406800F00C007047014600208C4AE8
:1009A000506820F0F0000843506070470146002076
:1009B000874A506820F4E060084350607047014661
:1009C0000020834A506820F4605040EAC100506023
:1009D000704729B17E4A527A02437D4B5A7204E035
:1009E0007B4A527A82437A4B5A7270477D4908603B
:1009F000704701460020764A506820F44040084382
:100A0000506070477849086070477749091D086051
:100A100070470021754A11706D4A82F82010012834
:100A200002D0042808D103E00121704A117004E0CB
:100A300005216E4A117000E000BF00BF70476C498D
:100A4000086070476249096A0143614A1162704750
:100A500067494439086070472DE9F04100210022C0
:100A6000002500230026002400278C46DFF8608143
:100A7000D8F8048008F00C0121B1042907D0082916
:100A800059D109E0DFF86C81C0F8008058E0DFF848
:100A90006881C0F8008053E0DFF83481D8F8048022
:100AA00008F47012DFF82881D8F8048008F4803543
:100AB000920C0D2A01D0921C00E0062235B9DFF815
:100AC0003C8102FB08F8C0F8008033E0DFF80081C9
:100AD000D8F82C8008F48036DFF8F480D8F82C8021
:100AE00008F00F0808F1010446B9DFF80C81B8FBE3
:100AF000F4F808FB02F8C0F800801BE0DFF8D080B3
:100B0000D8F82C80C8F3031808F10107DFF8C0807B
:100B1000D8F82C80C8F3032808F1020CDFF8D8803D
:100B2000B8FBF7F808FB0CF8B8FBF4F808FB02F880
:100B3000C0F8008004E0DFF8BC80C0F8008000BF8F
:100B400000BFDFF88C80D8F8048008F0F0010909B4
:100B5000DFF8AC8018F80130D0F8008028FA03F8EC
:100B6000C0F80480DFF86880D8F8048008F4E061F9
:100B7000090ADFF88C8018F80130D0F8048028FAD0
:100B800003F8C0F80880DFF84880D8F8048008F43B
:100B90006051C90ADFF8688018F80130D0F8048085
:100BA00028FA03F8C0F80C80DFF82480D8F8048015
:100BB00008F44041890BDFF84C8018F80130D0F878
:100BC0000C80B8FBF3F8C0F81080BDE8F08100009D
:100BD000001002400000FFF0FFFFF6FE000042425E
:100BE000F0FFFEFFD8004242C405424220100240FE
:100BF0008004424200127A0040787D0100093D00E5
:100C0000140000202400002029B1354A5269024313
:100C1000334B5A6104E0324A52698243304B5A6185
:100C2000704729B12E4A926902432D4B9A6104E024
:100C30002B4A926982432A4B9A61704729B1284A0C
:100C4000D2690243264BDA6104E0254AD269824325
:100C5000234BDA61704729B1214A926A0243204B43
:100C60009A6204E01E4A926A82431D4B9A62704760
:100C700029B11B4AD2680243194BDA6004E0184AD2
:100C8000D2688243164BDA60704729B1144A126960
:100C90000243134B1A6104E0114A12698243104B5C
:100CA0001A6170470F49086070470F49C864704760
:100CB0000B49C87170470A48406A40F08070084983
:100CC0004862704701460020054A92680A4201D0F6
:100CD000012000E000207047014988727047000041
:100CE00000100240400442420000424210B5044657
:100CF000FB48844209D101218803FFF7B9FF002195
:100D00004FF48040FFF7B4FF32E0F648844209D147
:100D100001214804FFF7B9FF00214FF40030FFF72D
:100D2000B4FF25E0F048844209D101218804FFF78F
:100D3000ACFF00214FF48020FFF7A7FF18E0EB483D
:100D4000844209D10121C804FFF79FFF00214FF41D
:100D50000020FFF79AFF0BE0E548844208D101210B
:100D60000805FFF792FF00214FF48010FFF78DFF79
:100D700010BD2DE9F04786B005460E460024A24678
:100D800000BFA1460027B08900B100BF2F462C8AC2
:100D90004CF6FF700440F08804432C82AC894EF678
:100DA000F3100440B0883189084371890843044333
:100DB000AC81AC8A4FF6FF400440B0890443AC825A
:100DC00001A8FFF749FEC648874202D1DDF810A00E
:100DD00001E0DDF80CA0A88910F4004F08D00AEB60
:100DE000CA0000EB0A1031684900B0FBF1F807E0D7
:100DF0000AEBCA0000EB0A1031688900B0FBF1F879
:100E00006420B8FBF0F004012009642101FB108983
:100E1000A88910F4004F08D0322000EBC900B0FBC5
:100E2000F1F000F00700044308E0322000EB091065
:100E30006421B0FBF1F000F00F0004432C8106B0F8
:100E4000BDE8F0874FF41651016000218180C18018
:100E500001810C21418100218181704710B502463A
:100E60000020108A4FF2FF0318400B884C88234360
:100E70008C882343CC8823431843108210BD002163
:100E8000018041808180C180704721B1828942F414
:100E90000052828104E082894DF6FF731A408281FC
:100EA0007047F0B503460024002600250020A1F578
:100EB00010676A3F00D100BF1846C1F3421401F029
:100EC0001F06012707FA06F5012C01D10C3004E0BA
:100ED000022C01D1103000E014301AB107682F4302
:100EE000076002E00768AF430760F0BD1AB1838A6C
:100EF0000B43838202E0838A8B4383827047028A9A
:100F00004FF6F0731A400282028A0A430282704747
:100F100082894FF2FF731A40828182890A4382815B
:100F2000704721B1828942F00202828104E0828905
:100F30004FF6FD731A4082817047028A4FF6DF73C5
:100F40001A400282028A0A430282704721B1028A51
:100F500042F48042028204E0028A4BF6FF731A4098
:100F600002827047C1F30802828070470146888878
:100F7000C0F308007047818941F001018181704709
:100F8000028BD2B20283028B42EA012202837047B3
:100F9000028B02F47F420283028B0A430283704772
:100FA00021B1828A42F02002828204E0828A4FF6D6
:100FB000DF731A408282704721B1828A42F01002A8
:100FC000828204E0828A4FF6EF731A408282704771
:100FD00021B1828A42F00802828204E0828A4FF6BE
:100FE000F7731A408282704721B1828942F400422D
:100FF000828103E08289C2F30E028281704721B1AF
:10100000828A42F40062828204E0828A4FF2FF7395
:101010001A4082827047828A4FF6FB731A4082829E
:10102000828A0A438282704721B1828A42F0020298
:10103000828204E0828A4FF6FD731A4082827047F2
:1010400002460020B1F5007F00D100BF13880B429B
:1010500001D0012000E00020704701F40072B2F5D9
:10106000007F00D100BFCA430280704770B50246BE
:101070000024002300250020A1F510666A3E00D15F
:1010800000BFC1F3421501F01F03012606FA03F366
:10109000012D02D19689334006E0022D02D1168A35
:1010A000334001E0968A33400C12012606FA04F41C
:1010B0001688344013B10CB1012000E0002070BD4F
:1010C00010B500220023A1F510646A3C00D100BFD6
:1010D0000A1201249440A3B2DC43048010BD000036
:1010E000003801400044004000480040004C0040EF
:1010F0000050004010B50446F948844208D101214F
:101100004015FFF7B5FD00216015FFF7B1FD17E0B1
:10111000F448844208D101210015FFF7A9FD002100
:101120002015FFF7A5FD0BE0EF48844208D101210F
:10113000C803FFF79DFD00214FF40040FFF798FD25
:1011400010BD30B50246002000235068E74C204017
:101150000D790C6844EA0524204350609068E44C03
:101160002040D1E902542C434D7944EA4504204300
:101170009060D06A20F470000C7C641EE4B22343BB
:1011800040EA0350D06230BD00210160017141711D
:101190008160C16001210174704721B1826842F011
:1011A0000102826003E0826822F0010282607047DF
:1011B00021B1826842F48072826003E0826822F486
:1011C00080728260704710B50023CBB21AB14468B8
:1011D0001C43446002E044689C43446010BD816845
:1011E00041F0080181607047014600208A6812F0D2
:1011F000080F01D0012000E000207047816841F015
:10120000040181607047014600208A6812F0040FD3
:1012100001D0012000E00020704721B1826842F433
:10122000A002826003E0826822F4A002826070471C
:10123000014600208A6812F4800F01D0012000E0EE
:101240000020704710B50A4600210023416821F4B0
:101250006041531E41EA4331416010BD21B14268F3
:1012600042F40062426003E0426822F4006242609D
:101270007047F0B504460D4600200021092D11DD10
:10128000E068A5F10A0606EB4607072606FA07F10D
:101290008843A5F10A0606EB460603FA06F1084361
:1012A000E0600CE0206905EB4507072606FA07F128
:1012B000884305EB450603FA06F108432061072A37
:1012C0000FDA606B561E06EB86071F2606FA07F13B
:1012D0008843561E06EB860605FA06F1084360634E
:1012E00022E00D2A0FDA206BD61F06EB86071F2699
:1012F00006FA07F18843D61F06EB860605FA06F1C3
:101300000843206310E0E06AA2F10D0606EB8607B1
:101310001F2606FA07F18843A2F10D0606EB8606A2
:1013200005FA06F10843E062F0BD21B1826842F49B
:101330008012826003E0826822F48012826070472B
:101340000146C86C80B2704765484C3000687047F1
:1013500021B1426842F48062426003E0426822F4B4
:1013600080624260704721B1426842F4805242601C
:1013700003E0426822F48052426070470A4600212E
:10138000816821F4E04111438160704721B1826896
:1013900042F40042826003E0826822F400428260EC
:1013A000704721B1826842F40212826003E08268D1
:1013B00022F4021282607047014600208A6812F40B
:1013C000001F01D0012000E000207047F0B5044666
:1013D0001546002000220026092911DDE068A1F150
:1013E0000A0707EB470C072707FA0CF29043A1F115
:1013F0000A0707EB470703FA07F21043E0600CE027
:10140000206901EB410C072707FA0CF2904301EB2E
:10141000410703FA07F210432061A06BC0F30156A5
:10142000EF1C06F1010CA7EB0C0707EB870C1F273D
:1014300007FA0CF29043EF1C06F1010CA7EB0C0726
:1014400007EB870701FA07F21043A063F0BD10B560
:101450000A4600210023816B21F44011531E41EA0A
:101460000351816310BD10B5002303460B441A607D
:1014700010BD02460023134601F1280003441868FA
:1014800080B270470A46002141681A4B1940114347
:10149000416070474162826270470A46002141689C
:1014A00021F01F0111434160704740B10C490831E0
:1014B000096841F400010A4A0832116007E008494E
:1014C0000831096821F40001054A083211607047AB
:1014D0000246002013680B420ED001200DE00000F0
:1014E0000024014000280140003C0140FFFEF0FFC5
:1014F000FDF7F1FFFFFD3FFF00207047CA43026088
:10150000704770B502460020002300240B12556876
:10151000CEB205EA060415681D4202D00CB10120C6
:1015200000E0002070BD00220A12D3430360704720
:1015300010B50446FE48844208D10121C014FFF7CB
:1015400097FB0021E014FFF793FBC4E0B4F1804F58
:1015500008D101210846FFF798FB00210120FFF781
:1015600094FBB8E0F348844208D101210220FFF740
:101570008CFB00210220FFF788FBACE0EE488442A0
:1015800008D101210420FFF780FB00210420FFF790
:101590007CFBA0E0E948844208D101210820FFF744
:1015A00074FB00210820FFF770FB94E0E4488442BC
:1015B00008D101211020FFF768FB00211020FFF760
:1015C00064FB88E0DF48844208D101212020FFF736
:1015D0005CFB00212020FFF758FB7CE0DA488442C6
:1015E00008D101214014FFF743FB00216014FFF7ED
:1015F0003FFB70E0D548844209D10121C804FFF7C0
:1016000037FB00214FF40020FFF732FB63E0D048A6
:10161000844209D101210805FFF72AFB00214FF47C
:101620008010FFF725FB56E0CA48844209D101210A
:101630004805FFF71DFB00214FF40010FFF718FBD2
:1016400049E0C548844208D101214020FFF71DFB35
:1016500000214020FFF719FB3DE0C048844208D13B
:1016600001218020FFF711FB00218020FFF70DFBF7
:1016700031E0BB48844208D101218015FFF705FB0A
:101680000021A015FFF701FB25E0B648844209D1EF
:1016900001210804FFF7ECFA00214FF48030FFF736
:1016A000E7FA18E0B048844209D101214804FFF765
:1016B000DFFA00214FF40030FFF7DAFA0BE0AB4815
:1016C000844208D101218804FFF7D2FA00214FF4A7
:1016D0008020FFF7CDFA10BD00220288944B98427B
:1016E0000ED0994B98420BD0B0F1804F08D0914B5F
:1016F000984205D0904B984202D0904B984204D12A
:101700004FF68F731A404B881A438D4B984207D07F
:101710008C4B984204D04FF6FF431A40CB881A43B3
:1017200002808B8883850B880385814B98420BD080
:10173000854B984208D08B4B984205D08A4B9842F3
:1017400002D08A4B984201D10B7A0386012383820F
:10175000704770B5002400220023058C4FF6FE76FA
:1017600035400584028C8388048B4FF68F752C409E
:10177000B51E2C400D882C43751E2A400D892A4326
:101780004D882A436A4DA8420BD06F4DA84208D01D
:10179000744DA84205D0744DA84202D0734DA842A2
:1017A00013D14FF6F7752A404D892A434FF6FB7542
:1017B0002A408D882A434FF6FF652B404FF6FF5590
:1017C0002B408D892B43CD892B4383800483CD8887
:1017D0008586028470BD70B5002400220023058C2C
:1017E0004FF6EF7635400584028C8388048B48F6EB
:1017F000FF752C404FF6FF452C400D884FF6FF76C5
:1018000006EA05252C434FF6DF752A400D8906EAC6
:1018100005152A434D8806EA05152A43444DA8427A
:1018200002D0494DA8421DD14FF67F752A404D89FF
:101830004FF6FF7606EA05152A434FF6BF752A4094
:101840008D8806EA05152A434FF6FF352B404FF2E7
:10185000FF752B408D8906EA85052B43CD8906EA65
:1018600085052B4383800483CD880587028470BD62
:1018700070B5002400220023058C4FF6FF6635402A
:101880000584028C8388848B4FF68F752C404FF62D
:10189000FC752C400D882C434FF6FF552A400D89CE
:1018A0004FF6FF7606EA05252A434D8806EA052508
:1018B0002A431F4DA84202D0234DA8421DD14FF20A
:1018C000FF752A404D894FF6FF7606EA05252A4323
:1018D0004FF6FF352A408D8806EA05252A434EF645
:1018E000FF752B404DF6FF752B408D8906EA0515D7
:1018F0002B43CD8906EA05152B4383808483CD884D
:101900008587028470BD70B5002200230024058CF9
:101910004EF6FF7635400584038C8488828B48F62A
:10192000FF752A404FF6FF452A400D8820E0000051
:10193000002C01400004004000080040000C004062
:10194000001000400014004000340140004C0140F1
:10195000005001400054014000180040001C0040AD
:101960000020004000400140004401400048014088
:101970004FF6FF7606EA05252A434DF6FF752B4004
:101980000D8906EA05352B434D8806EA05352B43BC
:10199000FA4DA84202D0FA4DA84208D14BF6FF7585
:1019A0002C408D894FF6FF7606EA85152C438480FE
:1019B0008283CD88A0F84050038470BD828B4FF2A3
:1019C000FF331A408283828B4FF6FF7303EA0123B1
:1019D0001A4382837047F0B50C4615460022002159
:1019E0000026078C4EF6FF7C07EA0C070784828BE3
:1019F000018C4FF6FF7707EA043640F6FF473A407E
:101A00004FF6FF7707EA05273A434FF6FF7707EAD5
:101A100003373A43D94FB8420ED0D94FB8420BD012
:101A2000B0F1804F08D0D74FB84205D0D64FB8425A
:101A300002D0D64FB84206D14DF6FF77394046F472
:101A40008057394305E047F6FF57394044F4805743
:101A5000394382830184F0BD828B4FF6F3731A40C1
:101A60008283828B0A4382837047F0B50C46154609
:101A7000002200210026078C4FF6FF6C07EA0C07B6
:101A80000784828B018C4FF6FF7707EA04264FF616
:101A90000C773A404FF6FF7707EA03172F433A4394
:101AA000B64FB8420ED0B64FB8420BD0B0F1804F0F
:101AB00008D0B44FB84205D0B34FB84202D0B34FAC
:101AC000B84206D14FF6FF57394046F48077394384
:101AD00005E04FF2FF57394044F480773943828361
:101AE0000184F0BD028B4FF2FF331A400283028B58
:101AF0004FF6FF7303EA01231A4302837047F0B5E0
:101B00000C461546002200210026078C4FF6EF7C7C
:101B100007EA0C070784028B018C4FF6FF7707EA70
:101B2000041640F6FF473A404FF6FF7707EA0337BF
:101B30003A434FF6FF7707EA05273A438F4FB842FB
:101B40000ED08F4FB8420BD0B0F1804F08D08D4FE0
:101B5000B84205D08C4FB84202D08C4FB84206D163
:101B60004FF6DF77394046F01007394305E04FF66E
:101B70005F77394044F01007394302830184F0BD98
:101B8000028B4FF6F3731A400283028B0A430283DF
:101B90007047F0B50C46154600220021068C4FF622
:101BA000FE773E400684028B018C4FF60C76324065
:101BB0007E1C06EA03162E433243704EB0420ED00E
:101BC0006F4EB0420BD0B0F1804F08D06D4EB04296
:101BD00005D06D4EB04202D06C4EB04206D14FF6E9
:101BE000FD76314044F00106314305E04FF6F576CD
:101BF000314044F00106314302830184F0BD70B5E9
:101C000005460C465D4885420ED05D4885420BD0A6
:101C1000B5F1804F08D05B48854205D05A488542CF
:101C200002D05A48854200D100E000BF208850B958
:101C30002389A28861882846FFF7ABFFE188284600
:101C4000FFF79EFF25E0208804280AD12389A28877
:101C500061882846FFF753FFE1882846FFF742FFD7
:101C600017E0208808280AD12389A288618828469D
:101C7000FFF7FBFEE1882846FFF7EEFE09E0238927
:101C8000A28861882846FFF7A6FEE1882846FFF76C
:101C900095FE70BD2DE9F04105460C460026012752
:101CA000608808B9022600E00026A088012801D13A
:101CB000022700E001272088A0B92389A288618833
:101CC0002846FFF766FFE1882846FFF759FF23897A
:101CD0003A4631462846FFF712FFE1882846FFF7CB
:101CE00001FF13E02389A28861882846FFF707FFD8
:101CF000E1882846FFF7F6FE23893A463146284612
:101D0000FFF747FFE1882846FFF73AFFBDE8F0817B
:101D10000A884B881A438B881A43CB881A430B894D
:101D20001A434B891A438B891A43A0F84420704701
:101D30004FF6FF71818000210180C18041800172D6
:101D400070470021018041808180C18001814181F3
:101D50008181C18170470021018041800121818002
:101D60000021C18001817047002101804180818074
:101D7000C18001814181818170470000002C0140B8
:101D8000003401400004004000080040000C004006
:101D900021B1028842F00102028004E002884FF67D
:101DA000FE731A400280704731B1B0F8442042F40B
:101DB0000042A0F8442005E0B0F84420C2F30E022F
:101DC000A0F8442070471AB183890B43838102E055
:101DD00083898B43838170478182704741EA020384
:101DE000A0F8483070471AB183890B43838102E021
:101DF00083898B438381704701894FF6F8721140C4
:101E0000018170470A46002101894FF68F731940FE
:101E100011430181704730B504460D4629462046DE
:101E2000FFF7F0FF208940F00700208130BD2DE949
:101E3000F04104460D4616461F46602D06D13B462E
:101E4000012231462046FFF75AFE05E03B460122BB
:101E500031462046FFF79DFE29462046FFF7D2FF78
:101E6000208940F007002081BDE8F08130B50C46A4
:101E700000210189C9B24FF6FF7505EA0325154314
:101E800025432943018130BD2DE9F04105460E4629
:101E900017469846002443463A4631462846FFF7FF
:101EA000E5FF2C894FF6F870044044F007044FF624
:101EB0008F70044044F070042C81BDE8F081F0B5CF
:101EC00004460D4616461F463B46324629462046E6
:101ED000FFF7CCFF208940F480402081F0BD0185D0
:101EE000828270470A46002101884FF68F7319409D
:101EF000114301807047F0B50C4615461E4600217F
:101F0000002200230189028B038C4FF6F8773940B9
:101F100021434FF6FC473A4040F201173A434FF64F
:101F2000DD773B404FF6FF7707EA06172F433B4329
:101F3000018102830384F0BD0A460021018B4FF624
:101F40008F7319401143018370470A460021018BAA
:101F500048F6FF7319404FF6FF7303EA0223194353
:101F6000018370470A460021818B4FF68F73194019
:101F70001143818370470A460021818B48F6FF7325
:101F800019404FF6FF7303EA022319438183704718
:101F900021B1028842F08002028004E002884FF6FC
:101FA0007F731A400280704721B1828842F0040298
:101FB000828004E082884FF6FB731A40828070476B
:101FC00021B1828842F00802828004E082884FF6C4
:101FD000F7731A408280704721B1828842F0010273
:101FE000828004E082884FF6FE731A408280704738
:101FF0000A460021018B4FF6F77319401143018304
:1020000070470A460021018B4FF2FF7319404FF6CB
:10201000FF7303EA02231943018370470A46002134
:10202000818B4FF6F77319401143818370470A463D
:102030000021818B4FF2FF7319404FF6FF7303EAC3
:1020400002231943818370470A460021018B4FF612
:10205000FB7319401143018370470A460021018B2D
:102060004FF6FF3319404FF6FF7303EA022319437B
:10207000018370470A460021818B4FF6FB7319409C
:102080001143818370470A460021818B4FF6FF334D
:1020900019404FF6FF7303EA022319438183704707
:1020A0000A460021018B4FF67F73194011430183CB
:1020B00070470A460021018BC1F30E014FF6FF73F2
:1020C00003EA02231943018370470A460021818BEA
:1020D0004FF67F7319401143818370470A460021F0
:1020E000818BC1F30E014FF6FF7303EA02231943FC
:1020F000818370470A460021018C4FF6FD73194019
:102100001143018470470A460021018C4FF6F77392
:1021100019401143018470470A460021018C4FF693
:10212000DF7319404FF6FF7303EA0213194301846A
:1021300070470A460021018C4FF67F7319404FF615
:10214000FF7303EA02131943018470470A46002112
:10215000018C4FF6FF5319404FF6FF7303EA022339
:102160001943018470470A460021018C4FF2FF7326
:1021700019404FF6FF7303EA0223194301847047A5
:102180000A460021018C4DF6FF7319404FF6FF738C
:1021900003EA023319430184704730B50023012458
:1021A0008C40A3B2048C9C430484048C02FA01F595
:1021B000ADB22C43048430BD30B5002304248C40E0
:1021C000A3B2048C9C430484048C02FA01F5ADB2E2
:1021D0002C43048430BD70B503460020002418460B
:1021E000183001258D40ACB21D8CA5431D8409B16A
:1021F000082909D100EB6100056825F0700505602C
:102200000568154305600EE00D1FC5F34E05284413
:10221000056825F4E045056005684FF6FF7606EA97
:1022200002263543056070BD21B1028842F00202EA
:10223000028004E002884FF6FD731A400280704766
:1022400021B1028842F00402028004E002884FF6C5
:10225000FB731A400280704721B1828842F08002ED
:10226000828004E082884FF67F731A408280704734
:1022700002884FF6F7731A40028002880A430280F0
:10228000704782884FF68F731A40828082880A4393
:102290008280704702894FF6F8731A4002810289E2
:1022A0000A430281704702894FF67F731A40028108
:1022B00002890A4302817047818470478185704793
:1022C000818670470187704781877047A0F840106A
:1022D000704702884FF6FF431A40028002880A4383
:1022E000028070470146888E70470146088F70470C
:1022F0000146888F70470146B1F84000704701469B
:10230000888C70470146088D704702460020138A6A
:102310000B4201D0012000E000207047CA43028236
:10232000704730B50246002000230024158A05EAD4
:102330000103958905EA010413B10CB1012000E005
:10234000002030BDCA4302827047000001684FF68A
:10235000FE72114001600021016041608160C16036
:102360008C49884208D18B490839496841F00F01EE
:10237000884A083A51608AE086491431884208D177
:1023800084490839496841F0F001824A083A5160AD
:102390007DE080492831884208D17E490839496862
:1023A00041F470617B4A083A516070E079493C31F0
:1023B000884208D177490839496841F47041754A23
:1023C000083A516063E073495031884208D171493D
:1023D0000839496841F470216E4A083A516056E064
:1023E0006C496431884208D16A490839496841F426
:1023F0007001684A083A516049E06649783188427C
:1024000008D164490839496841F07061614A083A65
:1024100051603CE06049884206D1011F096841F0E3
:102420000F01021F116032E05B491431884208D16C
:102430005949091F096841F0F001574A121F1160FC
:1024400025E055492831884208D15349091F0968B8
:1024500041F47061504A121F116018E04E493C313E
:10246000884208D14C49091F096841F470414A4A21
:10247000121F11600BE048495031884207D146498C
:10248000091F096841F47021434A121F1160704707
:1024900010B50022026847F6F0739A430C6A8B6805
:1024A00023430C6923434C6923438C692343CC6940
:1024B00023434C6A23438C6A23431A430260CB684C
:1024C00043600B6883604B68C36010BD00210160EE
:1024D00041608160C160016141618161C1610162EE
:1024E00041628162704721B1026842F001020260DC
:1024F00004E002684FF6FE731A40026070471AB19A
:1025000003680B43036002E003688B43036070477A
:10251000416070470146486880B27047014600201C
:10252000002211F0805F03D01B4B083B1A6802E0C9
:10253000184B083B1A680A4201D0012000E0002035
:10254000704710F0805F03D01349091F086002E054
:10255000104908394860704701460020002211F0F8
:10256000805F03D00C4B083B1A6802E0094B083B24
:102570001A680A4201D0012000E00020704710F0E4
:10258000805F03D00449091F086002E0014908394F
:10259000486070470800024008040240094880472C
:1025A00009480047FEE7FEE7FEE7FEE7FEE7FEE735
:1025B000FEE7FEE7FEE7FEE704480549054A064B4D
:1025C00070470000250300085101000880F4002036
:1025D00080FA002080F6002080F60020002106E02E
:1025E0000A2100BF0A00A1F1010399B2FAD1020049
:1025F000A0F1010398B2F3D170470EB5002500BFDA
:10260000002700BF00200290019000260090834622
:102610004FF001094FF0010A00F026FE0221FE48AA
:10262000FEF745F847F23050FFF7D8FF00F09FFE65
:10263000002000F0A7FF40F6B830FFF7CFFF0020E2
:1026400000F0A0FF40F6B830FFF7C8FFF3A24FF448
:102650009C71002001F032F840F6B830FFF7BEFF61
:1026600000F055FDF3A24FF49C71202001F026F8F4
:102670004FF47A70FFF7B2FF00F09AFD002000F0EF
:1026800081FF40F6B830FFF7A9FFF0A28021E020DB
:1026900001F014F852464021E02001F085F8EDA247
:1026A0004FF49C71E02001F009F84A4640F2011114
:1026B000E02001F079F8E948FEF742FE90E24FF49D
:1026C0000041E748FDF7D9FF002853D101A902A82E
:1026D00001F070FA0198B0F5FA6F23DA019800283A
:1026E00020DD4FF47A600290019000BF4FF400416A
:1026F000DB48FDF7C2FF0028F8D109F1010000F026
:10270000FF09B9F1140F01DD4FF00109D1A24FF417
:102710009C71E02000F0D2FF4A4640F20111E02017
:1027200001F042F840F648510198884222DA0198B7
:10273000B0F5FA6F1EDD4FF47A600290019000BF91
:102740004FF40041C648FDF798FF0028F8D10AF180
:10275000010000F0FF0ABAF1200F01DD4FF0010A7D
:10276000BAA28021E02000F0A9FF52464021E020DB
:1027700001F01AF800BF0220FFF7D0FE0128FAD1BD
:102780000021B848FFF7AFFE002508E005FB0AF07E
:10279000B54931F81000B54941F825006D1CB5F573
:1027A000207FF3DB002509E005FB09F0AE4931F895
:1027B00010000004AE4941F825006D1CB5F5806F8E
:1027C000F2DB4FF48062AA49AA4801F07FFA01F0D7
:1027D0000DFA0121A348FFF786FE0220FFF7B1FEA4
:1027E000A548C068009004250BE0A34850F82510C8
:1027F0000098814204D9A04850F825000090AB46CB
:102800006D1CB5F5A07FF0DB40210020009A00F0A0
:10281000CBFF4FF4FA7191FBF9F14FF47A720BFB95
:1028200002F201FB02F0C11700EBD1514912A1F1F4
:10283000640B5A464FF49C71002000F0B5FF8FA244
:102840004FF48071002000F039FF40F23F1800245F
:102850001BE0894850F82400A7EB5000A0F11407B2
:10286000874840F8247043463A464146384600F0CF
:102870004FFD40216848FDF71AFF4FF4FC6000F05F
:102880001AFDEF27A8F10108641CB4F5A07FE0DB76
:10289000012617E0754850F82600B0F5026F10DAEF
:1028A000724850F8260040F2E471884209DD6F4812
:1028B00050F82610701E6D4A52F82000814200DD4B
:1028C00002E0761CFF2EE5DB00BF40F23F183446E5
:1028D0001EE0664850F824000A2190FBF1F0381AF7
:1028E00000F16407A01B674941F8207043463A464F
:1028F0004146384600F00CFD40214748FDF7D7FE21
:102900004FF4FC6000F0D7FCB427A8F10108641C68
:1029100006F5A070A042DCDC40F23F18002422E063
:10292000594951F8242051F824004346414600F00B
:10293000EFFC40213848FDF7BAFE002000F0BBFC58
:10294000524951F8242051F824004346414600F0F2
:10295000DFFC40213048FDF7AAFE002000F0ABFC70
:10296000A8F10108641CB4F5A07FD9DB00BF0220E8
:10297000FFF7D4FD0128FAD100213A48FFF7B3FD53
:10298000002508E005FB0AF0374931F81000374907
:1029900041F825006D1CB5F5207FF3DB002509E02B
:1029A00005FB09F0304931F810000004304941F8C6
:1029B00025006D1CB5F5806FF2DB4FF480622C4969
:1029C0002C4801F083F901F011F901212548FFF7A6
:1029D0008AFD0220FFF7B5FD2748C0680090042556
:1029E0000BE0254850F825100098814204D9224870
:1029F00050F825000090AB466D1CB5F5A07FF0DBCC
:102A000040210020009A00F0CFFE4FF4FA7191FBB4
:102A1000F9F14FF47A723BE0000C01404C43442042
:102A20002E2E2E2E2E2E2E2E2E2E2E2E2E2E2E4FA5
:102A30004B210000616463202E2E2E2E2E2E2E2E72
:102A40002E2E2E2E2E2E4F4B210000007761765F0A
:102A500066733D006666745F66733D000024014046
:102A60000008014008000240203400202006002019
:102A70002024002020D4002020E40020487A0000F8
:102A8000201A0020201F00202010002020150020E8
:102A90000BFB02F201FB02F0C11700EBD15149120E
:102AA000A1F1640B5A464FF49C71002000F07CFEAB
:102AB000AFF238024FF48071002000F0FFFD40F2C9
:102AC0003F1800241BE0474850F82400A7EB5000B3
:102AD000A0F11407444840F8247043463A46414662
:102AE000384600F015FC40214048FDF7E0FD4FF46A
:102AF000FC6000F0E0FBEF27A8F10108641CB4F5CE
:102B0000A07FE0DB012617E0394850F82600B0F539
:102B1000026F10DA364850F8260040F2E47188421D
:102B200009DD334850F82610701E314A52F8200053
:102B3000814200DD02E0761CFF2EE5DB00BF40F2A3
:102B40003F1834461EE02A4850F824000A2190FB22
:102B5000F1F0381A00F16407A01B264941F82070F3
:102B600043463A464146384600F0D2FB40211F48D2
:102B7000FDF79DFD4FF4FC6000F09DFBB427A8F12C
:102B80000108641C06F5A070A042DCDC40F23F188E
:102B9000002422E0184951F8242051F8240043462B
:102BA000414600F0B5FB40211048FDF780FD0020B4
:102BB00000F081FB114951F8242051F824004346CC
:102BC000414600F0A5FB40210848FDF770FD0020BC
:102BD00000F071FBA8F10108641CB4F5A07FD9DBFB
:102BE0006DE5000020E4002020100020000C0140D2
:102BF0002006002020150020201A0020201F002081
:102C0000704700BFFEE700BFFEE700BFFEE700BF62
:102C1000FEE770477047704710B5FDF7E9FD4FF4C8
:102C20008030FDF70CFE0020FDF76AFEFDF746FE42
:102C3000044600BF3120FDF725FE0028FAD0012C04
:102C400032D10020FDF7A9FE0020FDF7B8FEA0025A
:102C5000FDF7ACFE4020FDF771FE4FF4C060FDF7BC
:102C600076FE04218803FDF75DFE0120FDF778FE66
:102C700000BFF748006810F0006FFAD04FF4001161
:102C80004811FDF740FE0120FDF749FE00BF392045
:102C9000FDF7F8FD0028FAD00220FDF770FE00BF16
:102CA000FDF776FE0828FBD101210420FDF7B9FFCE
:102CB00001210820FDF7B5FF01211020FDF7B1FF2C
:102CC00001212020FDF7ADFF01214020FDF7A9FFE4
:102CD00001210846FDF7A5FF0121DE48FDF70BFDA8
:102CE00010BD08B5DC48FDF7D7FB40F2C330ADF8A6
:102CF000000010208DF8030003208DF802006946C3
:102D0000D548FDF729FC4FF42040ADF80000032022
:102D10008DF8020018208DF803006946CE48FDF7B3
:102D20001BFC4FF48040ADF8000003208DF802003A
:102D300018208DF803006946C748FDF70DFC4FF4D5
:102D40000060ADF8000003208DF8020048208DF8E7
:102D500003006946C048FDF7FFFB4FF48060ADF803
:102D6000000003208DF8020010208DF80300694652
:102D7000B948FDF7F1FB4FF48050ADF80000032097
:102D80008DF8020010208DF803006946B248FDF767
:102D9000E3FB2820ADF8000003208DF8020010208E
:102DA0008DF803006946AC48FDF7D6FB1020ADF85E
:102DB000000003208DF8020028208DF803006946EA
:102DC000A548FDF7C9FB08BD08B5A448FDF764FB9D
:102DD0004FF6FF70ADF8000010208DF803000320BF
:102DE0008DF8020069469D48FDF7B6FB08BD08B5A1
:102DF0009B48FDF751FB4FF48070ADF800001020A8
:102E00008DF8030003208DF8020069469448FDF711
:102E1000A3FB0420ADF8000018208DF80300032068
:102E20008DF8020069468E48FDF796FB0820ADF844
:102E3000000018208DF8030003208DF80200694679
:102E40008748FDF789FBA020ADF8000003208DF82E
:102E5000020018208DF8030069468148FDF77CFBCD
:102E60004020ADF8000003208DF8020048208DF8C6
:102E7000030069467A48FDF76FFB1020ADF80000AB
:102E800003208DF8020010208DF803006946744875
:102E9000FDF762FB4FF40040ADF8000003208DF811
:102EA000020048208DF8030069466D48FDF754FB89
:102EB00008BD08B56B48FDF7EFFA0420ADF8000037
:102EC00010208DF8030003208DF802006946654844
:102ED000FDF742FB08BD1FB501214804FDF7AEFE1A
:102EE0004FF4E13000900020ADF80C000C20ADF85C
:102EF0000A000020ADF80800ADF80600ADF80400A7
:102F000069465948FDF735FF01215748FDF7BDFFD8
:102F10001FBD70B50446002504E080215248FEF72D
:102F20008FF80546002DF8D021464F48FEF71AF8D5
:102F300080214D48FEF791F870BD10B5044603E0BE
:102F40002078FFF7E6FF641C20780028F8D110BD38
:102F50002DE9F05F0446002500260027A846A94673
:102F6000AA46AB460A2094FBF0F100FB11453F480E
:102F700094FBF0F100FB114042F2107190FBF1F272
:102F800001FB12004FF47A7190FBF1F201FB120089
:102F9000642190FBF1F201FB12000A2190FBF1F693
:102FA000324894FBF0F100FB114042F2107190FBAB
:102FB000F1F201FB12004FF47A7190FBF1F201FB88
:102FC0001200642190FBF1F7284894FBF0F100FB1C
:102FD000114042F2107190FBF1F201FB12004FF42C
:102FE0007A7190FBF1F8214894FBF0F100FB11405D
:102FF00042F2107190FBF1F91C4894FBF0FA1C4866
:1030000094FBF0FB0BF13001C8B2FFF782FF0AF12D
:103010003001C8B2FFF77DFF09F13001C8B2FFF7F8
:1030200078FF08F13001C8B2FFF773FF07F13001F4
:10303000C8B2FFF76EFF06F13001C8B2FFF769FFB3
:1030400005F13001C8B2FFF764FFBDE8F09F000052
:103050000010024000023000000C0140001001404E
:10306000000801400014014000440040A086010017
:1030700040420F0000B587B0012140F20440FDF747
:10308000D0FD4FF40040FDF7B4FC0220ADF8040081
:1030900000208DF8070001A97948FDF75DFA79480D
:1030A000FEF728F8002002908DF80C0001208DF822
:1030B0000D004FF4602004900020059001208DF851
:1030C000180002A96F48FEF73CF801216D48FEF791
:1030D00064F801216B48FEF7A0F800230122114695
:1030E0006848FEF7C6F86748FEF779F800BF6548FC
:1030F000FEF77AF80028FAD16248FEF77FF800BFA1
:103100006048FEF780F80028FAD107B000BD00B58E
:1031100087B001214FF40170FDF783FD4FF40040AB
:10312000FDF767FC0120ADF8040000208DF80700D2
:1031300001A95348FDF710FA5348FDF7DBFF0020C3
:1031400002908DF80C0001208DF80D004FF46020E6
:1031500004900020059001208DF8180002A94A482B
:10316000FDF7EFFF01214848FEF722F8012146480C
:10317000FEF713F80023012219464348FEF779F8B9
:1031800001214148FEF749F83F48FEF728F800BF03
:103190003D48FEF729F80028FAD13B48FEF72EF803
:1031A00000BF3948FEF72FF80028FAD107B000BD5C
:1031B00000B58BB001210846FDF726FD3348FFF727
:1031C000C5F831484C300090314801900020029001
:1031D0004FF4A04003900020049080200590400010
:1031E000069080000790202008900002099000209F
:1031F0000A9069462548FFF74BF901212348FFF75C
:1032000072F90BB000BD30B587B004460D46012100
:10321000C802FDF706FD04A8FEF78AFDADF81440CC
:10322000ADF810500020ADF81600ADF8120004A95A
:103230001848FEF751FA6020ADF800000120ADF803
:103240000200ADF806400220ADF8080069461148BA
:10325000FEF77FFA01210F48FEF7A6FD01210D4878
:10326000FEF796FD07B030BD10B5FFF7D5FCFFF7B0
:10327000BEFDFFF736FDFFF7A7FDFFF71AFE10BDF5
:1032800000080140002801400024014008000240DD
:1032900020340020002C0140002106E00A2100BF5C
:1032A0000A00A1F1010399B2FAD10200A0F10103D1
:1032B00098B2F3D1704710B504462146FB48FDF79C
:1032C000FFF98021FA48FDF7F4F98021F848FDF76D
:1032D000EEF910BD10B504464021F548FDF7E7F9B9
:1032E0002046FFF7E8FF10BD10B504464021F04826
:1032F000FDF7DFF92046FFF7DEFF10BD70B504468D
:103300000D46A0B2FFF7F0FFA8B2FFF7E3FF70BDD4
:103310002DE9F04104460D4616461F462020FFF7D2
:10332000E3FFA0B2FFF7D6FF2120FFF7DDFFA8B231
:10333000FFF7D0FF5020FFF7D7FFA0B2FFF7CAFF7B
:103340005220FFF7D1FFA8B2FFF7C4FF5120FFF7CB
:10335000CBFFB0B2FFF7BEFF5320FFF7C5FFB8B2F7
:10336000FFF7B8FF2220FFF7BFFFBDE8F08110B5DF
:103370000121CF48FDF79BF94FF40071CC48FDF7D0
:1033800096F91420FFF788FF4FF40071C848FDF745
:1033900090F91420FFF780FF4FF40071C448FDF747
:1033A00086F90121C248FDF782F94FF48071C048C7
:1033B000FDF77DF98021BE48FDF779F91420FFF76C
:1033C0006BFF0121BA48FDF774F94FF480710120B9
:1033D000FFF794FF4FF4E0610220FFF78FFF41F207
:1033E00030010320FFF78AFF00210420FFF786FF4A
:1033F00040F207210820FFF781FF00210920FFF795
:103400007DFF00210A20FFF779FF00210C20FFF744
:1034100075FF00210D20FFF771FF00210F20FFF73E
:103420006DFF00211020FFF769FF07211120FFF732
:1034300065FF00211220FFF761FF00211320FFF735
:103440005DFF41F290211020FFF758FF40F2272145
:103450001120FFF753FF1D211220FFF74FFF4FF4FC
:10346000A8511320FFF74AFF18212920FFF746FF34
:103470000D212B20FFF742FF04213020FFF73EFFF4
:1034800040F207313120FFF739FF02213220FFF7E8
:1034900035FF40F206213520FFF730FF4FF4816100
:1034A0003620FFF72BFF40F207513720FFF726FFAA
:1034B0004FF401713820FFF721FF40F207713920E6
:1034C000FFF71CFF40F205413C20FFF717FF40F6D5
:1034D00002713D20FFF712FF00215020FFF70EFF81
:1034E000EF215120FFF70AFF00215220FFF706FFCE
:1034F00040F23F115320FFF701FF4FF427416020B6
:10350000FFF7FCFE01216120FFF7F8FE00216A2091
:10351000FFF7F4FE00218020FFF7F0FE002181205C
:10352000FFF7ECFE00218220FFF7E8FE0021832058
:10353000FFF7E4FE00218420FFF7E0FE0021852054
:10354000FFF7DCFE10219020FFF7D8FE4FF4C0619A
:103550009220FFF7D3FE03219320FFF7CFFE4FF415
:1035600088719520FFF7CAFE00219720FFF7C6FE5D
:1035700000219820FFF7C2FE40F233110720FFF729
:10358000BDFE10BD70B5064640F23F13EF2200218C
:103590000846FFF7BDFE002409E0002503E03046A1
:1035A000FFF798FE6D1CB5F5A07FF8DB641CF02CCE
:1035B000F3DB70BD70B504460D462B462246294606
:1035C0002046FFF7A5FE3B49098888B2FFF782FE37
:1035D00070BD70B540F23F13EF2200210846FFF79F
:1035E00097FE00240FE0002508E040213048FDF759
:1035F0005EF80020FFF75FFE681C85B2B5F5A07F7E
:10360000F3DB601C84B2F02CEDDB70BD2DE9F05FC4
:1036100005460E461746E02D02DCB6F59C7F01DD1F
:10362000BDE8F09FA7F12000C7B206F1080305F13D
:10363000100231462846FFF76BFE4FF0000810E0FD
:103640004FF0080B08E040211948FDF730F8002042
:10365000FFF731FEABF1010BBBF1000FF3DA08F11C
:103660000108B8F1100FEBDD00241AE004EB07109D
:10367000114911F800A04FF007090DE01AF0010FF1
:1036800006D006EB090291B22A1990B2FFF792FF19
:103690004FEA6A0AA9F10109B9F1000FEEDA601CDC
:1036A000C4B2102CE2DB00BFBAE7000000100140FA
:1036B000000C01402C0000203000002070B50646B0
:1036C0000C46154614E0E02E04DDFFF782FF4FF4B0
:1036D0009C740026002C04DA4FF49C7406F1100050
:1036E00086B22A78A1B23046FFF790FF083C6D1CE5
:1036F00028780028E7D170BD2DE9F04706460F462F
:103700009046002445460320A0EB480948E03A1BB8
:1037100091B2721B90B2FFF74DFF3A1B91B2721932
:1037200090B2FFF747FF7A1991B2321B90B2FFF7C0
:1037300041FF3A1B91B2721B90B2FFF73BFF7A1B1D
:1037400091B2321B90B2FFF735FF3A1991B272195C
:1037500090B2FFF72FFF7A1B91B2321990B2FFF7A8
:1037600029FF7A1991B2321990B2FFF723FF3A1963
:1037700091B2721B90B2FFF71DFF641CB9F1000FEC
:1037800003DAA000801D814404E0601B80000A3041
:1037900081446D1E7A1991B2321990B2FFF70AFF77
:1037A000AC42B4DDBDE8F0872DE9F74F84B00546A3
:1037B000144600260027B04600200390814682462A
:1037C00083460A2094FBF0F100FB1146642094FB31
:1037D000F0F100FB11400A2190FBF1F74FF47A70F1
:1037E00094FBF0F100FB1140642190FBF1F842F2F0
:1037F000107094FBF0F100FB11404FF47A7190FBD4
:10380000F1F00390854894FBF0F100FB114042F287
:10381000107190FBF1F9824894FBF0F100FB11402C
:103820007E4990FBF1FA7E4894FBF0FB0BF13000EF
:10383000C0B28DF804000AF13000C0B28DF8050066
:1038400009F13000C0B28DF8060003983030C0B2E4
:103850008DF8070008F13000C0B28DF8080007F1BC
:103860003000C0B28DF8090006F13000C0B28DF80A
:103870000A0000208DF80B0001AA28460599FFF7E1
:103880001DFF07B0BDE8F08F2DE9F04F87B0064669
:103890000C4615460027B846B946002006908246D9
:1038A000059083465F49284601F0D8FF0546284623
:1038B00001F080FF0A2190FBF1F201FB1200C7B278
:1038C000284601F077FF642190FBF1F201FB120022
:1038D0000A2190FBF1F000F0FF08284601F06AFF92
:1038E0004FF47A7190FBF1F201FB1200642190FB1E
:1038F000F1F000F0FF09284601F05CFF42F2107180
:1039000090FBF1F201FB12004FF47A7190FBF1F0A1
:10391000C0B20690284601F04DFF404990FBF1F2FD
:1039200001FB120042F2107190FBF1F000F0FF0A6F
:10393000284601F03FFF3A4990FBF1F201FB1200EB
:10394000364990FBF1F0C0B205903749284601F0A6
:103950006FFE019001F04AFF00F0FF0B0BF1300009
:10396000C0B28DF8100005983030C0B28DF811004B
:103970000AF13000C0B28DF8120000208DF813005B
:1039800006983030C0B28DF8080009F13000C0B29E
:103990008DF8090008F13000C0B28DF80A0007F177
:1039A0003000C0B28DF80B0000208DF80C0004AA86
:1039B00021463046FFF782FEA4F118011BA23046D3
:1039C000FFF77CFEA4F1200102AA3046FFF776FE45
:1039D00007B0BDE8F08F2DE9F04104460D461646CC
:1039E0002F1B05E0B1B2A0B2FFF7E4FD641C7F1EFF
:1039F000002FF7DCBDE8F0812DE9F04104460D46CB
:103A000016462F1B05E0A1B2B0B2FFF7D3FD641C30
:103A10007F1E002FF7DCBDE8F0810000A0860100CA
:103A200040420F0000401C46002474492E00000054
:103A300010B504216B48FCF73AFE08216A48FCF7F0
:103A400036FE20216848FCF732FE08216648FCF764
:103A50002EFE10BD70B50446002500BF18E004F02E
:103A60008000802804D120215F48FCF720FE03E07D
:103A700020215D48FCF71DFE08215B48FCF719FE7C
:103A800008215948FCF713FE6006040E681CC5B2F5
:103A9000082DE4DB70BD2DE9F04107460025002428
:103AA0004FF4E17608215048FCF703FE20214E48F0
:103AB000FCF7FFFD04214B48FCF7FBFD3846FFF700
:103AC000C9FF00BF3000A6F101018EB2FAD1082172
:103AD0004548FCF7EEFD482600BF3000A6F1010185
:103AE0008EB2FAD108214048FCF7E1FD08213E489A
:103AF000FCF7DFFD002515E008213B48FCF7D9FD68
:103B00004FF6FF7000EA440408213748FCF7CFFD68
:103B100010213548FCF7B1FD012801D1601C84B2A9
:103B2000681CC5B2102DE7DB241104212D48FCF7D9
:103B3000BEFD2046BDE8F0812DE9F04188B0804609
:103B40000027002406E04046FFF7A5FF2DF81400EB
:103B5000601C84B20F2CF6DB002416E0601C85B2DA
:103B60000FE03DF814003DF81510884207DD3DF8E0
:103B700014603DF815002DF814002DF81560681C30
:103B800085B20F2DEDDB601C84B20E2CE6DB002726
:103B9000052405E03DF81400384487B2601C84B267
:103BA0000A2CF7DB052097FBF0F086B2304608B010
:103BB000BDE8F0812DE9F04104460D46D020FFF725
:103BC000BBFF06469020FFF7B7FF0746642E01DBD8
:103BD000642F02DA0020BDE8F08126602F6001200A
:103BE000F9E7000000140140000C01402DE9F04FFE
:103BF00089B000245EE0324830F824000FFA80F9E2
:103C00002F4850F82400000C0FFA80FA484601F0C3
:103C10000DFE80464FF0894101F020FE07464FF02F
:103C20008E4101F005FD0546504601F0FFFD80463E
:103C30004FF0894101F012FE07464FF08E4101F02E
:103C4000F7FC06463146304601F008FE2946029050
:103C5000284601F003FE0190029901F087FC0390D1
:103C600001F058FCCDE9040101F069F90022154B7F
:103C7000CDE9060101F0BCF9074601F087F983465A
:103C80005CB94FF08E41584601F0E8FD074601F05F
:103C9000ADFD0D4941F824000AE04FF08F41584630
:103CA00001F0DCFD074601F0A1FD074941F82400C1
:103CB000601C84B2B4F5007F9DDB09B0BDE8F08FD5
:103CC00020D400200000904020E400202DE9F04F97
:103CD0004FF0000C4FF0000301EB9C5EBEF9025068
:103CE000BEF900400EF5806EBEF90290BEF900806C
:103CF0000EF5806EBEF90270BEF900600EF5806EA2
:103D0000BEF902B0BEF900A00EF5806ED044D944D1
:103D1000A8EB4A0AA9EB4B0B4FEAA4044FEAA5050E
:103D200004EBA60405EBA705A4EB6606A5EB670765
:103D300004EBA80405EBA905A4EB6808A5EB690949
:103D400006EBAB06A7EBAA07A6EB6B0B07EB6A0A21
:103D5000458020F8044B478020F8046BA0F80290BF
:103D600020F8048BA0F802A020F804BB03F10103A3
:103D700093FAA3FCB3F5807FAED1A0EB82014FF0A4
:103D8000100312090FF2341000F1000006B403EB27
:103D9000430C6144A2F5803202EB8332B1F9025048
:103DA000B1F90040A1EB0301B0F902B0B0F900A0F5
:103DB00000F10400A5EB040E0EFB0BFC0AEB4B0E0E
:103DC00005FB0ACB04FB0ECAB1F90250B1F9004061
:103DD000A1EB0301B0F90290B0F9008000F10400FA
:103DE000A5EB040E0EFB09FC08EB490E05FB08C908
:103DF00004FB0EC8B1F90250B1F90040A1EB030178
:103E0000B0F90270B0F9006000F10400A5EB040EF7
:103E10000EFB07FC06EB470E05FB06C704FB0EC6B0
:103E2000B1F90250B1F9004001F10001D044D94488
:103E3000A8EB4A0AA9EB4B0B4FEAA4044FEAA505ED
:103E400004EB264405EB2745A4EBE636A5EBE73764
:103E500004EB284405EB2945A4EBE838A5EBE93948
:103E600006EB2B46A7EB2A47A6EBEB3B07EBEA3A20
:103E70004D800C8019444F800E801944A1F80290A7
:103E8000A1F800801944A1F802A021F804BBB2F502
:103E9000803283DA03EB430C6144A2F101025FEA52
:103EA000024E18BFA0EB0C007FF476AF06BC4FEAC1
:103EB000830392087FF46AAFBDE8F08F00400000F2
:103EC00000400000004000005DDD213BA3227E1881
:103ED0000000412D7EA5412D0000412D00C0004075
:103EE0005DDD82E75DDD213B7EA5412D00400000C8
:103EF0000040000000400000AA2A94126B394606D8
:103F000049327C0CA8118E2349327C0CA3227E18E6
:103F100021F77931AA2A9412A8118E235DDD213B65
:103F2000A3227E180000412D95C6B13F461A2B1ED4
:103F300058EE3735BEB4C53EA8118E235DDD213B5A
:103F400063A97138DF089A28B7CDC53E7EA5412DFB
:103F50000000412D00C0004063A92B1E21F77931DC
:103F6000BEB4C53EBEB47C0C58EE373561AC213BC7
:103F700095C6BAF9BAE571383BA737355DDD82E7FA
:103F80005DDD213B7EA5412D21F766D756D53F3D0E
:103F90003BA78E23A811C9CAB7CDC53E61AC7E1818
:103FA000AA2AC1C295C6B13FBEB47C0C0040000035
:103FB00000400000004000001E3BB504693E920135
:103FC000C83C2403EB356409C83C24036B3946061E
:103FD0006C30060E1E3BB504EB356409AA2A941218
:103FE0006B39460649327C0CAE240917AF37D60729
:103FF000882E8D0F7E1E5D1BEB356409AA2A941254
:1040000024188C1F1E34F10AB3269015A8118E2394
:1040100049327C0CA3227E18140B60276C30060EEC
:104020007E1E5D1B7104FB2A882E8D0F461A2B1EE7
:10403000C7FD5A2E9D2C1211FE15E72021F779316C
:10404000AA2A9412A8118E2387F05334B22813148D
:10405000480D202602EAE536B3269015DF089A2897
:104060009CE32B39AE2409177104FB2A5DDD213B4B
:10407000A3227E180000412D4ED7C53C9320EF1996
:104080008FFB6C2F78D1153E7E1E5D1B21F7793199
:10409000E2CB0F3F641CC61CB8F2683395C6B13F33
:1040A000461A2B1E58EE373597C1FB3F24188C1F3C
:1040B00002EAE536F0BCEC3FFE15E720BAE57138C0
:1040C000A6B8853FD5133D2282E1DB39BEB4C53E9B
:1040D000A8118E235DDD213B40B1AF3D790FDA247D
:1040E0004DD9423C2EAE423C480D202656D53F3D90
:1040F0008EAB823A140B602778D1153E63A97138D4
:10410000DF089A28B7CDC53EB1A71236A906CE2939
:1041100015CA4F3F78A668337104FB2A95C6B13F94
:10412000BCA576303902212C38C3EC3F7EA5412D49
:104130000000412D00C00040BCA5CE29C7FD5A2E6D
:10414000F0BCEC3F78A620268FFB6C2F09BAB13F5C
:10415000B1A73D2257F976304DB74F3F63A92B1ECB
:1041600021F77931BEB4C53E8EABEF19ECF4743251
:104170005EB2153E2EAE9015B8F268332DB03F3DBD
:1041800040B1121187F053342EAE423CBEB47C0CC9
:1041900058EE373561AC213BA6B8D6072BEC12366A
:1041A000C8AADB39F0BC240302EAE53663A97138FA
:1041B00097C16EFEDCE7B03734A8E53695C6BAF98C
:1041C000BAE571383BA73735E2CB0FF59CE32B39C5
:1041D00078A6683378D173F082E1DB39EDA57931C7
:1041E0004ED7EDEB6DDF823A99A56C2F5DDD82E74E
:1041F0005DDD213B7EA5412D9CE33AE352DBB63BDE
:1042000099A5FB2A02EA19DF4DD9423CEDA59A286F
:1042100087F026DB4ED7C53C78A6202621F766D747
:1042200056D53F3D3BA78E23C7FDDFD363D3AF3DBC
:1042300034A8E720710494D078D1153E63A92B1ED1
:10424000140B8CCD94CF723EC8AA5D1BA811C9CAAD
:10425000B7CDC53E61AC7E18241850C8E2CB0F3FE5
:104260002EAE90157E1E25C615CA4F3F2DB0941256
:10427000AE244AC451C8853F5EB28D0FAA2AC1C27E
:1042800095C6B13FBEB47C0C6C308EC1E2C4D43F45
:104290004DB76409EB35B1C038C3EC3F09BA4606E7
:1042A0001E3B2CC097C1FB3FF0BC24030040000024
:1042B0000040000000400000D03E2E019B3F650002
:1042C000363FC9009A3D5B02363FC900693E920104
:1042D0005F3C8803D03E2E019A3D5B021E3BB50435
:1042E000693E9201C83C2403D939E205023EF70138
:1042F000F43BED038E380E079A3D5B021E3BB5047E
:104300003F373908313DC002463A7E05EB35640936
:10431000C83C24036B39460692348E0A5F3C8803FE
:104320008E380E073433B70BF43BED03AF37D607A7
:10433000D231DF0C8A3B5104CE369D086C30060E1C
:104340001E3BB504EB356409022F2B0FB23A1A0558
:1043500005352B0A932D5010463A7E051E34F10A7E
:10436000212C7311D939E2053433B70BAA2A9412E0
:104370006B39460649327C0C3129B413FD38AA0644
:104380005B31410DB327D2148E380E076C30060E08
:104390003226EE151F3872077B2FCA0EAE2409177E
:1043A000AF37D607882E8D0F262321183F373908BF
:1043B000932D50109C213719CE369D089D2C12113B
:1043C0000E204B1A5D360109A42BD3117E1E5D1BF6
:1043D000EB356409AA2A9412EB1C6C1C7835C709CA
:1043E000AF295413561B791D05352B0AB228131417
:1043F000BE19841E92348E0AB327D21424188C1F3F
:104400001E34F10AB326901588169120A933540B57
:10441000B1254C16EA1493213433B70BAE24091797
:104420004A139222BF321A0CA923C417A8118E2353
:1044300049327C0CA3227E1805108824D231DF0C6F
:104440009C213719610E7E255B31410D9320EF19B8
:10445000BB0C7126E430A40D891FA71A140B60272A
:104460006C30060E7E1E5D1B6D094C28F42F680E05
:10447000721D121CC40735297B2FCA0E641CC61C72
:104480001B061A2A022F2B0F561B791D7104FB2ABB
:10449000882E8D0F461A2B1EC702D82B0E2EEE0F1C
:1044A0003519DC1E1C01B22C932D501024188C1FC2
:1044B00072FF882D182DB11011173A20C7FD5A2E02
:1044C0009D2C1211FE15E7201DFC282F212C7311A5
:1044D000EA14932173FAF22FA42BD311D5133D22A2
:1044E000CAF8B830282B3412BF12E72221F77931ED
:1044F000AA2A9412A8118E2379F536322D2AF412A5
:1045000091103524D2F3EF32AF295413790FDA2406
:104510002CF2A3333129B413610E7E2587F0533476
:10452000B2281314480D2026E3EEFF343328731409
:104530002E0CC12641EDA535B327D214140B6027EC
:10454000A1EB483633273115FA09FE2702EAE53692
:10455000B3269015DF089A2865E87E373226EE15D7
:10456000C4073529CBE61238B1254C16A906CE2949
:1045700032E5A1382F25AB168D05652A9CE32B3932
:10458000AE2409177104FB2A08E2B0392B24661700
:1045900055038F2B77E0303AA923C4173902212C19
:1045A000E9DEAB3A262321181C01B22C5DDD213B4C
:1045B000A3227E180000412DD5DB923B1F22DB1881
:1045C000E4FECF2D4FDAFD3B9C213719C7FD5A2E53
:1045D000CDD8643C17219319ABFCE42E4ED7C53CD3
:1045E0009320EF198FFB6C2FD3D5213D0E204B1A52
:1045F00073FAF22F5CD4783D891FA71A57F97630E9
:10460000E8D2C93D041F021B3CF8F93078D1153EB1
:104610007E1E5D1B21F779310CD05C3EF81DB81B66
:1046200006F6F831A5CE9D3E721D121CECF47432D4
:1046300041CDD83EEB1C6C1CD2F3EF32E2CB0F3FE6
:10464000641CC61CB8F2683388CA403FDD1B201DBD
:104650009FF1DF3332C96B3F561B791D87F053340E
:10466000E1C7913FCE1AD31D6FEFC63495C6B13F57
:10467000461A2B1E58EE37354EC5CC3FBE19841E48
:1046800041EDA5350CC4E13F3519DC1E2BEC12368B
:10469000CFC2F13FAD18341F16EB7D3697C1FB3FFB
:1046A00024188C1F02EAE53665C000409B17E31F03
:1046B000EFE84B3738BFFF3F11173A20DCE7B03740
:1046C00011BEF83F88169120CBE61238F0BCEC3FC3
:1046D000FE15E720BAE57138D4BBDB3F74153D21E8
:1046E000AAE4CF38BFBAC43FEA1493219CE32B3924
:1046F000AFB9A73F5F14E8218EE28439A6B8853FA1
:10470000D5133D2282E1DB39A2B75D3F4A139222E5
:1047100077E0303AA5B6303FBF12E7226DDF823A2C
:10472000AFB5FD3E34123B2364DED33ABEB4C53E82
:10473000A8118E235DDD213BD5B3883E1D11E223F8
:1047400057DC6D3BF2B2453E9110352452DBB63B4F
:1047500015B2FC3D051088244FDAFD3B40B1AF3D5A
:10476000790FDA244DD9423C71B05B3DED0E2C251A
:104770004DD8853CA9AF033D610E7E254ED7C53C83
:10478000E8AEA53CD40DCF2551D6033D2EAE423C1C
:10479000480D202656D53F3D7BADDA3BBB0C71263C
:1047A0005CD4783DD0AC6D3B2E0CC12663D3AF3DBD
:1047B0002BACFA3AA10B11276DD2E33D8EAB823AB6
:1047C000140B602778D1153EF8AA063A870AAF275E
:1047D00085D0453E6AAA8439FA09FE2794CF723EF5
:1047E000E3A9FD386D094C28A5CE9D3E63A971381B
:1047F000DF089A28B7CDC53EEBA8E1375208E72875
:10480000CCCCEB3E7BA84B37C4073529E2CB0F3F1E
:1048100012A8B13636078129FBCA303FB1A712363C
:10482000A906CE2915CA4F3F57A76E351B061A2A6F
:1048300032C96B3F05A7C6348D05652A51C8853F2F
:10484000BBA61934FF04B02A72C79C3F78A6683310
:104850007104FB2A95C6B13F3EA6B232E303452B55
:10486000BAC5C43F0BA6F83155038F2BE2C4D43F21
:10487000E0A53931C702D82B0CC4E13FBCA5763086
:104880003902212C38C3EC3FA1A5AF2FAA016A2C15
:1048900066C2F53F8DA5E42E1C01B22C97C1FB3FEB
:1048A00081A5152E8E00FA2CCAC0FF3F7EA5412D92
:1048B0000000412D00C0004081A56A2C72FF882DA8
:1048C00038BFFF3F8DA58F2BE4FECF2D73BEFB3F7E
:1048D000A1A5B02A56FE152EB0BDF53FBCA5CE2928
:1048E000C7FD5A2EF0BCEC3FE0A5E72839FD9F2E0E
:1048F00032BCE13F0BA6FE27ABFCE42E77BBD43FD6
:104900003EA611271DFC282FBFBAC43F78A620263B
:104910008FFB6C2F09BAB13FBBA62C2501FBAF2F33
:1049200056B99C3F05A7352473FAF22FA6B8853FE8
:1049300057A73B23E5F93430F8B76B3FB1A73D22C9
:1049400057F976304DB74F3F12A83D21CAF8B8301D
:10495000A5B6303F7BA83A203CF8F93000B60F3FAF
:10496000EBA8341FAEF739315EB5EB3E63A92B1EC1
:1049700021F77931BEB4C53EE3A9201D93F6B931C4
:1049800022B49D3E6AAA121C06F6F83188B3723E24
:10499000F8AA021B79F53632F2B2453E8EABEF191A
:1049A000ECF474325EB2153E2BACDB185FF4B2321D
:1049B000CDB1E33DD0ACC417D2F3EF3240B1AF3D3F
:1049C0007BADAB1645F32C33B5B0783D2EAE9015CC
:1049D000B8F268332DB03F3DE8AE73142CF2A33328
:1049E000A9AF033DA9AF54139FF1DF3328AFC53CF6
:1049F00071B0341213F11934A9AE853C40B11211D3
:104A000087F053342EAE423C15B2EE0FFBEF8D34DF
:104A1000B6ADFD3BF2B2CA0E6FEFC63441ADB63B48
:104A2000D5B3A40DE3EEFF34D0AC6D3BBEB47C0C2B
:104A300058EE373561AC213BAFB5540BCCED6E353C
:104A4000F6ABD33AA5B62B0A41EDA5358EAB823A2B
:104A5000A2B70109B6ECDC3529AB303AA6B8D607C7
:104A60002BEC1236C8AADB39AFB9AA06A1EB48363F
:104A70006AAA8439BFBA7E0516EB7D360FAA2B3998
:104A8000D4BB51048CEAB136B7A9CF38F0BC2403AB
:104A900002EAE53663A9713811BEF70178E91837E3
:104AA00012A9123838BFC900EFE84B37C5A8B03794
:104AB00065C09BFF65E87E377BA84B3797C16EFECC
:104AC000DCE7B03734A8E536CFC240FD53E7E13725
:104AD000F1A77D360CC413FCCBE61238B1A7123611
:104AE0004EC5E6FA42E6423874A7A53595C6BAF92E
:104AF000BAE571383BA73735E1C78EF832E5A13802
:104B000005A7C63432C963F7AAE4CF38D3A6533415
:104B100088CA39F623E4FD38A4A6DF33E2CB0FF5CB
:104B20009CE32B3978A6683341CDE6F315E3583979
:104B300050A6EF32A5CEBFF28EE284392CA6743295
:104B40000CD098F108E2B0390BA6F83178D173F0A7
:104B500082E1DB39EDA57931E8D24FEFFCE0063A8E
:104B6000D3A5F9305CD42DEE77E0303ABCA5763091
:104B7000D3D50CEDF2DF593AA9A5F22F4ED7EDEBC4
:104B80006DDF823A99A56C2FCDD8CFEAE9DEAB3A3A
:104B90008DA5E42E4FDAB4E964DED33A85A55A2E0A
:104BA000D5DB9AE8E1DDFA3A7FA5CF2D5DDD82E71E
:104BB0005DDD213B7EA5412DE9DE6DE6DADC473B7C
:104BC0007FA5B22C77E059E557DC6D3B85A5212CFC
:104BD00008E248E4D5DB923B8DA58F2B9CE33AE3BA
:104BE00052DBB63B99A5FB2A32E52DE2D1DADA3B5E
:104BF000A9A5652ACBE624E14FDAFD3BBCA5CE2969
:104C000065E81DE0CED9203CD3A5352902EA19DF9D
:104C10004DD9423CEDA59A28A1EB18DECDD8643CD5
:104C20000BA6FE2741ED19DD4DD8853C2CA660274B
:104C3000E3EE1EDCCDD7A53C50A6C12687F026DBCF
:104C40004ED7C53C78A620262CF231DACFD6E43CEC
:104C5000A4A67E25D2F33FD951D6033DD3A6DA24AC
:104C600079F551D8D3D5213D05A7352421F766D74D
:104C700056D53F3D3BA78E23CAF87FD6D8D45B3D9F
:104C800074A7E72273FA9BD55CD4783DB1A73D2287
:104C90001DFCBBD4DFD3933DF1A79321C7FDDFD328
:104CA00063D3AF3D34A8E72072FF06D3E8D2C93DF5
:104CB0007BA83A201C0131D26DD2E33DC5A88C1FE0
:104CC000C70261D1F2D1FC3D12A9DC1E710494D05F
:104CD00078D1153E63A92B1E1B06CCCFFED02D3EEE
:104CE000B7A9791DC40707CF85D0453E0FAAC61CBA
:104CF0006D0947CE0CD05C3E6AAA121C140B8CCDF9
:104D000094CF723EC8AA5D1BBB0CD4CC1CCF883E8E
:104D100029ABA71A610E21CCA5CE9D3E8EABEF1913
:104D2000051073CB2ECEB13EF6AB3719A811C9CA08
:104D3000B7CDC53E61AC7E184A1324CA41CDD83EDA
:104D4000D0ACC417EA1483C9CCCCEB3E41AD0917F3
:104D50008816E8C857CCFD3EB6AD4C16241850C88E
:104D6000E2CB0F3F2EAE9015BE19BEC76ECB203FD3
:104D7000A9AED214561B31C7FBCA303F28AF13145B
:104D8000EB1CA8C688CA403FA9AF54137E1E25C697
:104D900015CA4F3F2DB094120E20A7C5A3C95D3F81
:104DA000B5B0D3119C212DC532C96B3F40B1121152
:104DB0002623B9C4C1C8783FCDB15010AE244AC42F
:104DC00051C8853F5EB28D0F3226E0C3E1C7913FE7
:104DD000F2B2CA0EB3277BC372C79C3F88B3060EDC
:104DE00031291CC303C7A73F22B4410DAA2AC1C25F
:104DF00095C6B13FBEB47C0C212C6DC227C6BB3F0B
:104E00005EB5B70B932D1DC2BAC5C43F00B6F10AFB
:104E1000022FD3C14EC5CC3FA5B62B0A6C308EC134
:104E2000E2C4D43F4DB76409D2314FC176C4DB3FF1
:104E3000F8B79D08343315C10CC4E13FA6B8D607B6
:104E40009234E0C0A1C3E73F56B90E07EB35B1C0BD
:104E500038C3EC3F09BA46063F3788C0CFC2F13F9E
:104E6000BFBA7E058E3864C066C2F53F77BBB50415
:104E7000D93945C0FEC1F83F32BCED031E3B2CC002
:104E800097C1FB3FF0BC24035F3C19C030C1FD3F1C
:104E9000B0BD5B029A3D0BC0CAC0FF3F73BE92011A
:104EA000D03E03C065C0004038BFC900704770479E
:104EB000704710B500F008F8006810BD10B5044642
:104EC00000F002F8046010BD0048704720F4002094
:104ED0000048704720F400207546FFF7F9FFAE4602
:104EE00005006946534620F00700854618B020B5F6
:104EF000FDF762FBBDE820404FF000064FF00007D1
:104F00004FF000084FF0000B21F00701AC46ACE871
:104F1000C009ACE8C009ACE8C009ACE8C0098D46DE
:104F200070470446AFF300802046FBF778F9000095
:104F300001491820ABBEFEE72600020070472DE9AC
:104F4000F04106460F4600F0FFF904000D4618BF79
:104F50000120284320F00040C0F17F6000F1E040D4
:104F6000C00F0FD0002E14BF01200020384320F0C6
:104F70000040C0F17F6000F1E040C00F04BF01209D
:104F8000FFF79CFF20462946BDE8F08121F0004252
:104F9000A2F16052B2F5801F01F0004328BFD2F1A8
:104FA0007F6C0BD95FEA001C43EAC20242EB5070EF
:104FB00018BF704728BF20F001007047B2F5801F6E
:104FC000BCBF184670474FEA410C1CF5001F02D2C7
:104FD000084600F00ABD70B500F062F900000089D3
:104FE000FFF7F6BF4FF00040A0F5800070470000CB
:104FF0002DE9C04130B4DFF8A0C23CEA111418BF5B
:105000003CEA131400F0EC8081EA03051CEA111459
:1050100044EAD57418BF1CEA131500F0C780A4EB4E
:1050200005044FF0004545EAC12145EAC32341EAA2
:10503000505143EA525304F17F74994204F500340D
:105040004FEAC0204FEAC22208BF904200F09C8085
:105050004FEA13650FF24016765D4FEA134506FBE3
:1050600005F7C7F1807706FB07F74FEAD737A7FBAD
:1050700003687642C8F58038A7FB06CE38BFA8F192
:10508000010807FB08E64FF0000EA6FB028CE6FBCA
:1050900003CEDCF1000CCEF1004E38BFAEF1010EB4
:1050A000A6FB0C584FF000074FF00005E6FB0E87FB
:1050B000A1FB08C6A0FB07CE16EB0E0645F10005C6
:1050C000E1FB076515F1E04E7EBFA4F580345FEA91
:1050D00046066D4116F1800745F100054FEA172796
:1050E0004FEA066647EA0567A6F1DE46B6F1805F3D
:1050F0004FEA15251FD9384624F0010C05EBC47181
:10510000BCF1FE6F01EB0C1102D8F0BCBDE80081D0
:1051100024425CBF01F5801E9EEAC47F02D4F0BC2D
:10512000BDE80081244238D4F0BCA1F1C041BDE803
:10513000004100F003B94FEAD22242EA43524FEA5B
:10514000D323A7FB02864FEAD02040EA415007FB59
:1051500003661EEA0E0F4FEAD12105FB026658BF17
:10516000A6EB0056B6EB00564FEA520E4EEAC37E4F
:1051700018EB0E0E56EB530EBDD518EB02085E4130
:105180007F1C55F10005B6E74FF480154FF000077E
:105190004FF000064FF00008ADE7F0BC4FF0000004
:1051A00001F1C04101F00041BDE8008111EA0C1F8E
:1051B0000CEA131500D00CE013EA0C1F00F0258058
:1051C0004FF00000F0BC81EA030101F00041BDE8AE
:1051D0000081F0BCBDE8004181EA030100F0AEB8F7
:1051E000F0BCBDE8004170B500F05AF8097EFC3E05
:1051F00000F007B881EA03014FF0000001F0004120
:10520000704781EA030100F099B8F0BCBDE80041A5
:105210004FF0000021497047FFFDFBF9F7F5F4F26C
:10522000F0EEEDEBE9E8E6E4E3E1E0DEDDDBDAD841
:10523000D7D5D4D3D1D0CFCDCCCBCAC8C7C6C5C49F
:10524000C2C1C0BFBEBDBCBBBAB9B8B7B6B5B4B3B6
:10525000B2B1B0AFAEADACABAAA9A8A8A7A6A5A4A1
:10526000A3A3A2A1A09F9F9E9D9C9C9B9A99999865
:105270009797969595949393929191908F8F8E8E08
:105280008D8C8C8B8B8A8989888887878685858495
:1052900084838382828181800000FF070000F87F81
:1052A0000EF1020E2EF0030E5EF8046B364205D4AA
:1052B000012A43EB030515F5001F12D8012841EB25
:1052C000010C1CF5001F0CD80ED14FEAD17C15F54E
:1052D000001F0CEB4C0C0CF1020C08BF4CEBD37C08
:1052E00004E04FF0080C01E04FEAD37C0CEB4C05D6
:1052F00026FA05F606F00706B6F1040C06D20EEB08
:10530000860CBDE870404CF0010C6047DFE80CF003
:10531000090B02024FF000414FF00000A1F50021FF
:1053200070BD19461046012851EB010418BFD4F591
:10533000001484BF002001F0004170BD0808A0F5F2
:1053400000114FEA310170472DE9F04101F5801C51
:10535000BCF5001FC0F2C3804FEA115C21EA0C517A
:105360000CF1FD0C41F480115FEA5C0C0CF5C07C83
:1053700001D3400049413DA4890241EA905187028E
:105380008E0E0A0CA45D04FB04F602FB06F6C6F1C1
:105390004046A4FB0662F60D46EA422606FB06F4EA
:1053A000A4FB01235242C3F1404338BF5B1EA6FB5E
:1053B00002420024E6FB0324D20B42EA4446A6FB49
:1053C0000623A1FB02E2A3FB07E4A4184FF00002AE
:1053D00052F10002E3FB01426442C2F1404E38BF89
:1053E000AEF1010EA6FB04234FF00002E6FB0E32E5
:1053F000A2FB03464FF00004B61954F10004E2FB8F
:105400000264A1FB06E6A4FB07E816EB08064FF0D2
:10541000000858F10008E4FB01687642C8F14058E2
:1054200038BFA8F10108A2FB06E4A3FB08E52D198B
:105430004FF0000454F10004E2FB0854A1FB05E620
:10544000A7FB04E818EB06084FF0000656F100062B
:10545000E1FB048618F1200556F10006A809A8F121
:105460001B08B10908F03F08B8F10A0F40EA86604E
:105470001CD901EB0C51BDE8F08100BFFCF5EEE852
:10548000E2DDD8D3CFCBC7C3C0BDB9B6B4B1AEACE3
:10549000A9A7A5A3A19F9D9B9A9896959392908F5B
:1054A0008D8C8B898887868584838281A0FB0068A8
:1054B00000FB01F208EB4208B8EB872807D5341847
:1054C00058EB0104D5D5401C51F10001D1E7341A45
:1054D00078EB0104CDD4401E71F10001C9E75FEA09
:1054E0004C0C5FEA9C5C0DD105D34FF0000001F03D
:1054F0000041BDE8F081BDE8F04170B5FFF7D0FE96
:105500006DDBFFBEBDE8F0414FF000000049704781
:105510000000F87F43004FEAD30C4FEA3C0C4340B5
:105520001FBF40070CF1605113F0FE4F70471CF095
:10553000006F03D100200CF0004170470CF00043D5
:1055400043EA507010B540EACC0000F008FA00BF02
:10555000000000924FEA0001FFF7F0BE4FF000415B
:105560004FF00000A1F500217047000090EA010F04
:1055700048BF81F0004100F14482421A3CBF801ACA
:1055800089184FEAD0524FF07F4C1CEA410FA2EB32
:10559000D15318BF9CEA026F00F03B804FF0004CE3
:1055A0004CEA00204CEA012121FA03FC10EB0C0C20
:1055B0001ED202F1FF325FEA1C2040EBC25038BF1E
:1055C00070471CF07F0F4FEA400C18BFBCF17F4FB3
:1055D00038BF7047C3F12003994008BF20F0010095
:1055E000BCF17F4F38BF7047A0F1C04000F0FDB95B
:1055F0004FEA3C00000A40EBC25028BF1CF0FF0FEE
:105600004FEA400CE6D018BFBCF17F4F38BF70475F
:10561000EAE79CEA026F05D010EA5C0F08BF00F0D1
:105620000040704710B500F09AF900BF64FBBE3E21
:105630004FF47F0C1CEAD0121EBF1CEAD11392EA71
:105640000C0F93EA0C0F00F0858090EA010F48BF21
:1056500042F4807240F4000C41F400002CF07F41D1
:1056600020F07F4000B58142A2EB03020FF2081C3C
:10567000ACEB504EC0F100009EF800E04FEA4E0E39
:1056800000FB0EFC38BF49004FEA2C1C02F5FA0261
:105690000CFB0EF34FEACE1E4FEA112C4FEAC1214C
:1056A0000EEB635E42EB22420EFB0CFC4FEA1C53F6
:1056B00000FB03114FEA112C4FEA01310EFB0CFCE9
:1056C0004FEADC4C00FB0C11C14228BF09184CEB1F
:1056D00003335DF804EB10EB410143EBC250B2F52C
:1056E0007C0F38BF704729D512F0F00F1CBF00F1B6
:1056F000C04000F000407047008182838485868727
:1057000088898B8C8D8E8F919293959697999A9C80
:105710009D9FA0A2A3A5A7A8AAACAEB0B2B3B5B7EF
:10572000B9BCBEC0C2C5C7C9CCCED1D4D7D9DCDFC5
:10573000E2E6E9ECF0F3F7FAFE0000004FEA400C75
:105740000CF1807CBCF17E4F28BF7047B0F1C040A7
:1057500000F04BB990EA010F0CEAD11348BF42F4B4
:105760008072624538BF634507D213F47F0F16D0AD
:1057700080EA010000F00040704710B500F0EFF83B
:10578000097EFC3E00F005B880EA010000F0004010
:10579000704780EA010000F0004000F026B912F4E2
:1057A0007F0F04BF0248704780EA010000F01DB976
:1057B0000000C07F41000B0ED3F19E0208D950F4C7
:1057C00000034FEA032323FA02F048BF4042704728
:1057D00010B500F0C4F800BF499224800020704743
:1057E0006FF0004282EA200070470000C10DD1F145
:1057F0009E0206DB4FEA002343F0004323FA02F047
:105800007047004207D54FEA4001B1F1FE4F02D286
:105810004FF00000704710B500F0A1F849922480C5
:10582000002070476FEA20007047000010F0004130
:1058300048BF4042B0FA80F310FA03F2C3F19D036F
:105840000BD051EAC35101EB1220530638BF704709
:1058500000F1010008BF20F0010070474FF47F0CF9
:105860001CEAD0121EBF1CEAD11392EA0C0F93EA75
:105870000C0F00F0478090EA010F48BF42F480729D
:105880004FF0004C4CEA00204CEA012102EB0302ED
:10589000A0FB0113A2F50002002918BF43F0010389
:1058A0005B0028BF4FEA330342EB22425FEA132C2E
:1058B0004CEBC2502EBFBCEB436FB2F57C0F704770
:1058C0004FEA036CBCF1004F08BF20F00100B2F5B5
:1058D0007C0F38BF70470BD582F0FF0212F5803F76
:1058E000C8BF704700F1C040D8BF00F0004070470B
:1058F00000F5000C5FEA4C0C48BF7047B0F1C040A7
:1059000000F073B890EA010F0CEAD11348BF42F4DB
:105910008072624538BF634504D280EA010000F01E
:105920000040704710B500F01AF800BF8900013E32
:1059300000F007B800F009B85FEA410C5FEA1C6CA0
:1059400008D080EA010000F050B85FEA400C5FEA3E
:105950001C6CF6D14FF00040A0F5800070470EF1AE
:10596000020E2EF0030E5EF8044B244204D44FEADC
:105970004102B2F17F4F11D84FEA4003B3F17F4F9C
:105980000CD80ED14FEAD07CB2F17F4F0CEB4C0C0F
:105990000CF1020C08BF4CEBD17C04E04FF0080C7A
:1059A00001E04FEAD17C0CEB4C0324FA03F404F041
:1059B0000704B4F1040C06D20EEB840CBDE81040D1
:1059C0004CF0010C6047DFE80CF0070802024FF0D2
:1059D0000040A0F5800010BD0846420018BFD2F17B
:1059E000807288BF00F0004010BDFF2141EAD05016
:1059F000C005704790EA010F48BF81F000413FF5B4
:105A0000BCAD421A04D882F00042A0EB020011445F
:105A10004FEAD0524FF07F4C1CEA410FA2EBD1531A
:105A200018BF9CEA026F4AD04FF0004C4CEA0020AD
:105A30004CEA012121FA03FCB0EB0C0C0FD412F05C
:105A4000FE0F36D05FEA4C001DD5001240EBC2506D
:105A500038BF70471CF03F0F18BF70470BE0A2F132
:105A600001025FEA1C2040EBC25038BF70471CF0B7
:105A70007F0F18BF7047C3F12003994014BF401E29
:105A800020F00100704780084FEA122308BF7047DA
:105A9000B0FA80FCA2EB0C02CCF1280C60FA0CF0FE
:105AA00093EA122F04BF00EBC25070474FEAC37055
:105AB0007047130A5FEADC1008BF7047F6E79CEAFC
:105AC000026F04D010EA5C0F08BF0020704710B5C9
:105AD000FFF745FF40DFF63E81F0004070470000D1
